{
  "_format": "hh-sol-artifact-1",
  "contractName": "MerkleDistributor",
  "sourceName": "contracts/MerkleDistributor.sol",
  "abi": [
    {
      "inputs": [
        {
          "internalType": "address",
          "name": "token_",
          "type": "address"
        },
        {
          "internalType": "bytes32",
          "name": "merkleRoot_",
          "type": "bytes32"
        },
        {
          "internalType": "uint256",
          "name": "dropAmount_",
          "type": "uint256"
        }
      ],
      "stateMutability": "nonpayable",
      "type": "constructor"
    },
    {
      "inputs": [],
      "name": "AlreadyClaimed",
      "type": "error"
    },
    {
      "inputs": [],
      "name": "InvalidProof",
      "type": "error"
    },
    {
      "inputs": [
        {
          "internalType": "address",
          "name": "token",
          "type": "address"
        }
      ],
      "name": "SafeERC20FailedOperation",
      "type": "error"
    },
    {
      "anonymous": false,
      "inputs": [
        {
          "indexed": true,
          "internalType": "address",
          "name": "claimant",
          "type": "address"
        },
        {
          "indexed": false,
          "internalType": "uint256",
          "name": "amount",
          "type": "uint256"
        }
      ],
      "name": "Claimed",
      "type": "event"
    },
    {
      "inputs": [
        {
          "internalType": "bytes32[]",
          "name": "merkleProof",
          "type": "bytes32[]"
        }
      ],
      "name": "claim",
      "outputs": [],
      "stateMutability": "nonpayable",
      "type": "function"
    },
    {
      "inputs": [],
      "name": "dropAmount",
      "outputs": [
        {
          "internalType": "uint256",
          "name": "",
          "type": "uint256"
        }
      ],
      "stateMutability": "view",
      "type": "function"
    },
    {
      "inputs": [
        {
          "internalType": "address",
          "name": "user",
          "type": "address"
        }
      ],
      "name": "isClaimed",
      "outputs": [
        {
          "internalType": "bool",
          "name": "",
          "type": "bool"
        }
      ],
      "stateMutability": "view",
      "type": "function"
    },
    {
      "inputs": [],
      "name": "merkleRoot",
      "outputs": [
        {
          "internalType": "bytes32",
          "name": "",
          "type": "bytes32"
        }
      ],
      "stateMutability": "view",
      "type": "function"
    },
    {
      "inputs": [],
      "name": "token",
      "outputs": [
        {
          "internalType": "address",
          "name": "",
          "type": "address"
        }
      ],
      "stateMutability": "view",
      "type": "function"
    }
  ],
  "bytecode": "0x60e060405234801561001057600080fd5b50604051610afd380380610afd8339818101604052810190610032919061014d565b8273ffffffffffffffffffffffffffffffffffffffff1660808173ffffffffffffffffffffffffffffffffffffffff16815250508160a081815250508060c081815250505050506101a0565b600080fd5b600073ffffffffffffffffffffffffffffffffffffffff82169050919050565b60006100ae82610083565b9050919050565b6100be816100a3565b81146100c957600080fd5b50565b6000815190506100db816100b5565b92915050565b6000819050919050565b6100f4816100e1565b81146100ff57600080fd5b50565b600081519050610111816100eb565b92915050565b6000819050919050565b61012a81610117565b811461013557600080fd5b50565b60008151905061014781610121565b92915050565b6000806000606084860312156101665761016561007e565b5b6000610174868287016100cc565b935050602061018586828701610102565b925050604061019686828701610138565b9150509250925092565b60805160a05160c0516109126101eb600039600081816101040152818161034c01526103eb015260008181610128015261029401526000818161036d015261042601526109126000f3fe608060405234801561001057600080fd5b50600436106100575760003560e01c806305748be21461005c5780632eb4a7ab1461007a5780638cc0802514610098578063b391c508146100c8578063fc0c546a146100e4575b600080fd5b610064610102565b604051610071919061062b565b60405180910390f35b610082610126565b60405161008f919061065f565b60405180910390f35b6100b260048036038101906100ad91906106e2565b61014a565b6040516100bf919061072a565b60405180910390f35b6100e260048036038101906100dd91906107aa565b61019f565b005b6100ec610424565b6040516100f99190610806565b60405180910390f35b7f000000000000000000000000000000000000000000000000000000000000000081565b7f000000000000000000000000000000000000000000000000000000000000000081565b60008060008373ffffffffffffffffffffffffffffffffffffffff1673ffffffffffffffffffffffffffffffffffffffff16815260200190815260200160002060009054906101000a900460ff169050919050565b6000803373ffffffffffffffffffffffffffffffffffffffff1673ffffffffffffffffffffffffffffffffffffffff16815260200190815260200160002060009054906101000a900460ff1615610222576040517f646cf55800000000000000000000000000000000000000000000000000000000815260040160405180910390fd5b6000336040516020016102359190610869565b6040516020818303038152906040528051906020012090506102b9838380806020026020016040519081016040528093929190818152602001838360200280828437600081840152601f19601f820116905080830192505050505050507f000000000000000000000000000000000000000000000000000000000000000083610448565b6102ef576040517f09bde33900000000000000000000000000000000000000000000000000000000815260040160405180910390fd5b60016000803373ffffffffffffffffffffffffffffffffffffffff1673ffffffffffffffffffffffffffffffffffffffff16815260200190815260200160002060006101000a81548160ff0219169083151502179055506103b1337f00000000000000000000000000000000000000000000000000000000000000007f000000000000000000000000000000000000000000000000000000000000000073ffffffffffffffffffffffffffffffffffffffff1661045f9092919063ffffffff16565b3373ffffffffffffffffffffffffffffffffffffffff167fd8138f8a3f377c5259ca548e70e4c2de94f129f5a11036a15b69513cba2b426a7f0000000000000000000000000000000000000000000000000000000000000000604051610417919061062b565b60405180910390a2505050565b7f000000000000000000000000000000000000000000000000000000000000000081565b60008261045585846104de565b1490509392505050565b6104d9838473ffffffffffffffffffffffffffffffffffffffff1663a9059cbb8585604051602401610492929190610884565b604051602081830303815290604052915060e01b6020820180517bffffffffffffffffffffffffffffffffffffffffffffffffffffffff838183161783525050505061052e565b505050565b60008082905060005b84518110156105235761051482868381518110610507576105066108ad565b5b60200260200101516105d0565b915080806001019150506104e7565b508091505092915050565b600080602060008451602086016000885af180610551576040513d6000823e3d81fd5b3d92506000519150506000821461056c576001811415610588565b60008473ffffffffffffffffffffffffffffffffffffffff163b145b156105ca57836040517f5274afe70000000000000000000000000000000000000000000000000000000081526004016105c19190610806565b60405180910390fd5b50505050565b60008183106105e8576105e382846105fb565b6105f3565b6105f283836105fb565b5b905092915050565b600082600052816020526040600020905092915050565b6000819050919050565b61062581610612565b82525050565b6000602082019050610640600083018461061c565b92915050565b6000819050919050565b61065981610646565b82525050565b60006020820190506106746000830184610650565b92915050565b600080fd5b600080fd5b600073ffffffffffffffffffffffffffffffffffffffff82169050919050565b60006106af82610684565b9050919050565b6106bf816106a4565b81146106ca57600080fd5b50565b6000813590506106dc816106b6565b92915050565b6000602082840312156106f8576106f761067a565b5b6000610706848285016106cd565b91505092915050565b60008115159050919050565b6107248161070f565b82525050565b600060208201905061073f600083018461071b565b92915050565b600080fd5b600080fd5b600080fd5b60008083601f84011261076a57610769610745565b5b8235905067ffffffffffffffff8111156107875761078661074a565b5b6020830191508360208202830111156107a3576107a261074f565b5b9250929050565b600080602083850312156107c1576107c061067a565b5b600083013567ffffffffffffffff8111156107df576107de61067f565b5b6107eb85828601610754565b92509250509250929050565b610800816106a4565b82525050565b600060208201905061081b60008301846107f7565b92915050565b60008160601b9050919050565b600061083982610821565b9050919050565b600061084b8261082e565b9050919050565b61086361085e826106a4565b610840565b82525050565b60006108758284610852565b60148201915081905092915050565b600060408201905061089960008301856107f7565b6108a6602083018461061c565b9392505050565b7f4e487b7100000000000000000000000000000000000000000000000000000000600052603260045260246000fdfea26469706673582212202adfcfec27231724cf16b1cfa2d557cbcb6e78ef6b897879d4c29ab47a3d809164736f6c634300081c0033",
  "linkReferences": {},
  "deployedLinkReferences": {}
}